{
  "contractName": "Dex",
  "abi": [
    {
      "anonymous": false,
      "inputs": [
        {
          "indexed": true,
          "internalType": "address",
          "name": "previousOwner",
          "type": "address"
        },
        {
          "indexed": true,
          "internalType": "address",
          "name": "newOwner",
          "type": "address"
        }
      ],
      "name": "OwnershipTransferred",
      "type": "event"
    },
    {
      "inputs": [
        {
          "internalType": "bytes32",
          "name": "ticker",
          "type": "bytes32"
        },
        {
          "internalType": "address",
          "name": "tokenAddress",
          "type": "address"
        }
      ],
      "name": "addToken",
      "outputs": [],
      "stateMutability": "nonpayable",
      "type": "function"
    },
    {
      "inputs": [
        {
          "internalType": "address",
          "name": "",
          "type": "address"
        },
        {
          "internalType": "bytes32",
          "name": "",
          "type": "bytes32"
        }
      ],
      "name": "balances",
      "outputs": [
        {
          "internalType": "uint256",
          "name": "",
          "type": "uint256"
        }
      ],
      "stateMutability": "view",
      "type": "function"
    },
    {
      "inputs": [
        {
          "internalType": "uint256",
          "name": "amount",
          "type": "uint256"
        },
        {
          "internalType": "bytes32",
          "name": "ticker",
          "type": "bytes32"
        }
      ],
      "name": "deposit",
      "outputs": [],
      "stateMutability": "nonpayable",
      "type": "function"
    },
    {
      "inputs": [
        {
          "internalType": "address",
          "name": "_address",
          "type": "address"
        },
        {
          "internalType": "bytes32",
          "name": "ticker",
          "type": "bytes32"
        }
      ],
      "name": "getBalance",
      "outputs": [
        {
          "internalType": "uint256",
          "name": "",
          "type": "uint256"
        }
      ],
      "stateMutability": "view",
      "type": "function"
    },
    {
      "inputs": [],
      "name": "owner",
      "outputs": [
        {
          "internalType": "address",
          "name": "",
          "type": "address"
        }
      ],
      "stateMutability": "view",
      "type": "function"
    },
    {
      "inputs": [],
      "name": "renounceOwnership",
      "outputs": [],
      "stateMutability": "nonpayable",
      "type": "function"
    },
    {
      "inputs": [
        {
          "internalType": "uint256",
          "name": "",
          "type": "uint256"
        }
      ],
      "name": "tokenList",
      "outputs": [
        {
          "internalType": "bytes32",
          "name": "",
          "type": "bytes32"
        }
      ],
      "stateMutability": "view",
      "type": "function"
    },
    {
      "inputs": [
        {
          "internalType": "bytes32",
          "name": "",
          "type": "bytes32"
        }
      ],
      "name": "tokenMapping",
      "outputs": [
        {
          "internalType": "bytes32",
          "name": "ticker",
          "type": "bytes32"
        },
        {
          "internalType": "address",
          "name": "tokenAddress",
          "type": "address"
        }
      ],
      "stateMutability": "view",
      "type": "function"
    },
    {
      "inputs": [
        {
          "internalType": "address",
          "name": "newOwner",
          "type": "address"
        }
      ],
      "name": "transferOwnership",
      "outputs": [],
      "stateMutability": "nonpayable",
      "type": "function"
    },
    {
      "inputs": [
        {
          "internalType": "uint256",
          "name": "amount",
          "type": "uint256"
        },
        {
          "internalType": "bytes32",
          "name": "ticker",
          "type": "bytes32"
        }
      ],
      "name": "withdraw",
      "outputs": [],
      "stateMutability": "nonpayable",
      "type": "function"
    },
    {
      "inputs": [
        {
          "internalType": "bytes32",
          "name": "ticker",
          "type": "bytes32"
        },
        {
          "internalType": "enum Dex.Side",
          "name": "side",
          "type": "uint8"
        }
      ],
      "name": "getOrderBook",
      "outputs": [
        {
          "components": [
            {
              "internalType": "enum Dex.Side",
              "name": "side",
              "type": "uint8"
            },
            {
              "internalType": "address",
              "name": "trader",
              "type": "address"
            },
            {
              "internalType": "bytes32",
              "name": "ticker",
              "type": "bytes32"
            },
            {
              "internalType": "uint256",
              "name": "amount",
              "type": "uint256"
            },
            {
              "internalType": "uint256",
              "name": "price",
              "type": "uint256"
            }
          ],
          "internalType": "struct Dex.Order[]",
          "name": "",
          "type": "tuple[]"
        }
      ],
      "stateMutability": "view",
      "type": "function"
    },
    {
      "inputs": [
        {
          "internalType": "enum Dex.Side",
          "name": "side",
          "type": "uint8"
        },
        {
          "internalType": "bytes32",
          "name": "ticker",
          "type": "bytes32"
        },
        {
          "internalType": "uint256",
          "name": "amount",
          "type": "uint256"
        },
        {
          "internalType": "uint256",
          "name": "price",
          "type": "uint256"
        }
      ],
      "name": "createLimitOrder",
      "outputs": [],
      "stateMutability": "nonpayable",
      "type": "function"
    }
  ],
  "bytecode": "0x608060405234801561001057600080fd5b5060006100216100c460201b60201c565b9050806000806101000a81548173ffffffffffffffffffffffffffffffffffffffff021916908373ffffffffffffffffffffffffffffffffffffffff1602179055508073ffffffffffffffffffffffffffffffffffffffff16600073ffffffffffffffffffffffffffffffffffffffff167f8be0079c531659141344cd1fd0a4f28419497f9722a3daafe3b4186f6b6457e060405160405180910390a3506100cc565b600033905090565b61188c806100db6000396000f3fe608060405234801561001057600080fd5b50600436106100b45760003560e01c80639ead7222116100715780639ead72221461017a578063a8d2021a146101aa578063ba58ea68146101c6578063c79d5ec5146101f6578063c9630cb014610226578063f2fde38b14610242576100b4565b80631f14df69146100b9578063667cb4ba146100e95780636f3b62f91461011a578063715018a6146101365780638da5cb5b146101405780639776aacf1461015e575b600080fd5b6100d360048036038101906100ce919061107c565b61025e565b6040516100e091906115b8565b60405180910390f35b61010360048036038101906100fe91906110e1565b610283565b60405161011192919061152f565b60405180910390f35b610134600480360381019061012f9190611182565b6102c7565b005b61013e6104ac565b005b6101486105e6565b6040516101559190611477565b60405180910390f35b6101786004803603810190610173919061110a565b61060f565b005b610194600480360381019061018f91906111e5565b61074a565b6040516101a19190611514565b60405180910390f35b6101c460048036038101906101bf919061120e565b61076e565b005b6101e060048036038101906101db9190611146565b6109f2565b6040516101ed91906114f2565b60405180910390f35b610210600480360381019061020b919061107c565b610ba9565b60405161021d91906115b8565b60405180910390f35b610240600480360381019061023b919061120e565b610c04565b005b61025c60048036038101906102579190611053565b610df7565b005b6003602052816000526040600020602052806000526040600020600091509150505481565b60016020528060005260406000206000915090508060000154908060010160009054906101000a900473ffffffffffffffffffffffffffffffffffffffff16905082565b60006001811115610301577f4e487b7100000000000000000000000000000000000000000000000000000000600052602160045260246000fd5b84600181111561033a577f4e487b7100000000000000000000000000000000000000000000000000000000600052602160045260246000fd5b14156103d0576103538282610fa090919063ffffffff16565b600360003373ffffffffffffffffffffffffffffffffffffffff1673ffffffffffffffffffffffffffffffffffffffff16815260200190815260200160002060007f455448000000000000000000000000000000000000000000000000000000000081526020019081526020016000205410156103cf57600080fd5b5b600180811115610409577f4e487b7100000000000000000000000000000000000000000000000000000000600052602160045260246000fd5b846001811115610442577f4e487b7100000000000000000000000000000000000000000000000000000000600052602160045260246000fd5b14156104a65781600360003373ffffffffffffffffffffffffffffffffffffffff1673ffffffffffffffffffffffffffffffffffffffff16815260200190815260200160002060008581526020019081526020016000205410156104a557600080fd5b5b50505050565b6104b4610fb6565b73ffffffffffffffffffffffffffffffffffffffff166104d26105e6565b73ffffffffffffffffffffffffffffffffffffffff1614610528576040517f08c379a000000000000000000000000000000000000000000000000000000000815260040161051f90611598565b60405180910390fd5b600073ffffffffffffffffffffffffffffffffffffffff1660008054906101000a900473ffffffffffffffffffffffffffffffffffffffff1673ffffffffffffffffffffffffffffffffffffffff167f8be0079c531659141344cd1fd0a4f28419497f9722a3daafe3b4186f6b6457e060405160405180910390a360008060006101000a81548173ffffffffffffffffffffffffffffffffffffffff021916908373ffffffffffffffffffffffffffffffffffffffff160217905550565b60008060009054906101000a900473ffffffffffffffffffffffffffffffffffffffff16905090565b610617610fb6565b73ffffffffffffffffffffffffffffffffffffffff166106356105e6565b73ffffffffffffffffffffffffffffffffffffffff161461068b576040517f08c379a000000000000000000000000000000000000000000000000000000000815260040161068290611598565b60405180910390fd5b60405180604001604052808381526020018273ffffffffffffffffffffffffffffffffffffffff16815250600160008481526020019081526020016000206000820151816000015560208201518160010160006101000a81548173ffffffffffffffffffffffffffffffffffffffff021916908373ffffffffffffffffffffffffffffffffffffffff16021790555090505060028290806001815401808255809150506001900390600052602060002001600090919091909150555050565b6002818154811061075a57600080fd5b906000526020600020016000915090505481565b80600073ffffffffffffffffffffffffffffffffffffffff166001600083815260200190815260200160002060010160009054906101000a900473ffffffffffffffffffffffffffffffffffffffff1673ffffffffffffffffffffffffffffffffffffffff1614156107df57600080fd5b82600360003373ffffffffffffffffffffffffffffffffffffffff1673ffffffffffffffffffffffffffffffffffffffff1681526020019081526020016000206000848152602001908152602001600020541015610872576040517f08c379a000000000000000000000000000000000000000000000000000000000815260040161086990611578565b60405180910390fd5b6108d583600360003373ffffffffffffffffffffffffffffffffffffffff1673ffffffffffffffffffffffffffffffffffffffff168152602001908152602001600020600085815260200190815260200160002054610fbe90919063ffffffff16565b600360003373ffffffffffffffffffffffffffffffffffffffff1673ffffffffffffffffffffffffffffffffffffffff1681526020019081526020016000206000848152602001908152602001600020819055506001600083815260200190815260200160002060010160009054906101000a900473ffffffffffffffffffffffffffffffffffffffff1673ffffffffffffffffffffffffffffffffffffffff1663a9059cbb33856040518363ffffffff1660e01b815260040161099a9291906114c9565b602060405180830381600087803b1580156109b457600080fd5b505af11580156109c8573d6000803e3d6000fd5b505050506040513d601f19601f820116820180604052508101906109ec91906110b8565b50505050565b6060600460008481526020019081526020016000206000836001811115610a42577f4e487b7100000000000000000000000000000000000000000000000000000000600052602160045260246000fd5b8152602001908152602001600020805480602002602001604051908101604052809291908181526020016000905b82821015610b9d57838290600052602060002090600402016040518060a00160405290816000820160009054906101000a900460ff166001811115610ade577f4e487b7100000000000000000000000000000000000000000000000000000000600052602160045260246000fd5b6001811115610b16577f4e487b7100000000000000000000000000000000000000000000000000000000600052602160045260246000fd5b81526020016000820160019054906101000a900473ffffffffffffffffffffffffffffffffffffffff1673ffffffffffffffffffffffffffffffffffffffff1673ffffffffffffffffffffffffffffffffffffffff168152602001600182015481526020016002820154815260200160038201548152505081526020019060010190610a70565b50505050905092915050565b6000600360008473ffffffffffffffffffffffffffffffffffffffff1673ffffffffffffffffffffffffffffffffffffffff168152602001908152602001600020600083815260200190815260200160002054905092915050565b80600073ffffffffffffffffffffffffffffffffffffffff166001600083815260200190815260200160002060010160009054906101000a900473ffffffffffffffffffffffffffffffffffffffff1673ffffffffffffffffffffffffffffffffffffffff161415610c7557600080fd5b6001600083815260200190815260200160002060010160009054906101000a900473ffffffffffffffffffffffffffffffffffffffff1673ffffffffffffffffffffffffffffffffffffffff166323b872dd3330866040518463ffffffff1660e01b8152600401610ce893929190611492565b602060405180830381600087803b158015610d0257600080fd5b505af1158015610d16573d6000803e3d6000fd5b505050506040513d601f19601f82011682018060405250810190610d3a91906110b8565b50610d9e83600360003373ffffffffffffffffffffffffffffffffffffffff1673ffffffffffffffffffffffffffffffffffffffff168152602001908152602001600020600085815260200190815260200160002054610fd490919063ffffffff16565b600360003373ffffffffffffffffffffffffffffffffffffffff1673ffffffffffffffffffffffffffffffffffffffff168152602001908152602001600020600084815260200190815260200160002081905550505050565b610dff610fb6565b73ffffffffffffffffffffffffffffffffffffffff16610e1d6105e6565b73ffffffffffffffffffffffffffffffffffffffff1614610e73576040517f08c379a0000000000000000000000000000000000000000000000000000000008152600401610e6a90611598565b60405180910390fd5b600073ffffffffffffffffffffffffffffffffffffffff168173ffffffffffffffffffffffffffffffffffffffff161415610ee3576040517f08c379a0000000000000000000000000000000000000000000000000000000008152600401610eda90611558565b60405180910390fd5b8073ffffffffffffffffffffffffffffffffffffffff1660008054906101000a900473ffffffffffffffffffffffffffffffffffffffff1673ffffffffffffffffffffffffffffffffffffffff167f8be0079c531659141344cd1fd0a4f28419497f9722a3daafe3b4186f6b6457e060405160405180910390a3806000806101000a81548173ffffffffffffffffffffffffffffffffffffffff021916908373ffffffffffffffffffffffffffffffffffffffff16021790555050565b60008183610fae9190611673565b905092915050565b600033905090565b60008183610fcc91906116cd565b905092915050565b60008183610fe2919061161d565b905092915050565b600081359050610ff9816117ea565b92915050565b60008151905061100e81611801565b92915050565b60008135905061102381611818565b92915050565b6000813590506110388161182f565b92915050565b60008135905061104d8161183f565b92915050565b60006020828403121561106557600080fd5b600061107384828501610fea565b91505092915050565b6000806040838503121561108f57600080fd5b600061109d85828601610fea565b92505060206110ae85828601611014565b9150509250929050565b6000602082840312156110ca57600080fd5b60006110d884828501610fff565b91505092915050565b6000602082840312156110f357600080fd5b600061110184828501611014565b91505092915050565b6000806040838503121561111d57600080fd5b600061112b85828601611014565b925050602061113c85828601610fea565b9150509250929050565b6000806040838503121561115957600080fd5b600061116785828601611014565b925050602061117885828601611029565b9150509250929050565b6000806000806080858703121561119857600080fd5b60006111a687828801611029565b94505060206111b787828801611014565b93505060406111c88782880161103e565b92505060606111d98782880161103e565b91505092959194509250565b6000602082840312156111f757600080fd5b60006112058482850161103e565b91505092915050565b6000806040838503121561122157600080fd5b600061122f8582860161103e565b925050602061124085828601611014565b9150509250929050565b600061125683836113f1565b60a08301905092915050565b61126b81611701565b82525050565b61127a81611701565b82525050565b600061128b826115e3565b61129581856115fb565b93506112a0836115d3565b8060005b838110156112d15781516112b8888261124a565b97506112c3836115ee565b9250506001810190506112a4565b5085935050505092915050565b6112e78161171f565b82525050565b6112f68161171f565b82525050565b61130581611766565b82525050565b600061131860268361160c565b91507f4f776e61626c653a206e6577206f776e657220697320746865207a65726f206160008301527f64647265737300000000000000000000000000000000000000000000000000006020830152604082019050919050565b600061137e60158361160c565b91507f696e7375666669636e69656e742062616c616e636500000000000000000000006000830152602082019050919050565b60006113be60208361160c565b91507f4f776e61626c653a2063616c6c6572206973206e6f7420746865206f776e65726000830152602082019050919050565b60a08201600082015161140760008501826112fc565b50602082015161141a6020850182611262565b50604082015161142d60408501826112de565b5060608201516114406060850182611459565b5060808201516114536080850182611459565b50505050565b6114628161175c565b82525050565b6114718161175c565b82525050565b600060208201905061148c6000830184611271565b92915050565b60006060820190506114a76000830186611271565b6114b46020830185611271565b6114c16040830184611468565b949350505050565b60006040820190506114de6000830185611271565b6114eb6020830184611468565b9392505050565b6000602082019050818103600083015261150c8184611280565b905092915050565b600060208201905061152960008301846112ed565b92915050565b600060408201905061154460008301856112ed565b6115516020830184611271565b9392505050565b600060208201905081810360008301526115718161130b565b9050919050565b6000602082019050818103600083015261159181611371565b9050919050565b600060208201905081810360008301526115b1816113b1565b9050919050565b60006020820190506115cd6000830184611468565b92915050565b6000819050602082019050919050565b600081519050919050565b6000602082019050919050565b600082825260208201905092915050565b600082825260208201905092915050565b60006116288261175c565b91506116338361175c565b9250827fffffffffffffffffffffffffffffffffffffffffffffffffffffffffffffffff0382111561166857611667611778565b5b828201905092915050565b600061167e8261175c565b91506116898361175c565b9250817fffffffffffffffffffffffffffffffffffffffffffffffffffffffffffffffff04831182151516156116c2576116c1611778565b5b828202905092915050565b60006116d88261175c565b91506116e38361175c565b9250828210156116f6576116f5611778565b5b828203905092915050565b600061170c8261173c565b9050919050565b60008115159050919050565b6000819050919050565b6000819050611737826117d6565b919050565b600073ffffffffffffffffffffffffffffffffffffffff82169050919050565b6000819050919050565b600061177182611729565b9050919050565b7f4e487b7100000000000000000000000000000000000000000000000000000000600052601160045260246000fd5b7f4e487b7100000000000000000000000000000000000000000000000000000000600052602160045260246000fd5b600281106117e7576117e66117a7565b5b50565b6117f381611701565b81146117fe57600080fd5b50565b61180a81611713565b811461181557600080fd5b50565b6118218161171f565b811461182c57600080fd5b50565b6002811061183c57600080fd5b50565b6118488161175c565b811461185357600080fd5b5056fea2646970667358221220a3ccb0a5927fd45691ce43c03945f837aa6c607bbe1d2fcdf3ef31313322c45b64736f6c63430008000033",
  "immutableReferences": {},
  "source": "pragma solidity 0.8.0;\n//pragma experimental ABIEncoderV2;\n//standard feature since solc v0.8.0: ABI coder v2 is activated by default.\n\nimport \"./wallet.sol\";\n\ncontract Dex is Wallet {\n    using SafeMath for uint256;\n\n    enum Side {\n        BUY, //0\n        SELL //1\n    }\n\n    struct Order {\n        Side side;\n        address trader;\n        bytes32 ticker;\n        uint256 amount;\n        uint256 price;\n    }\n    //an actual orderbook split into bids and asks\n    // need one orderbook for each assets\n    // assets => mapping(BUY/SELL => Order[])\n    mapping(bytes32 => mapping(uint256 => Order[])) orderbook;\n\n    function getOrderBook(bytes32 ticker, Side side)\n        public\n        view\n        returns (Order[] memory)\n    {\n        return orderbook[ticker][uint256(side)]; // getOrderBook(bytes32(\"LINK\", Side.BUY))\n    }\n\n    function createLimitOrder(\n        Side side,\n        bytes32 ticker,\n        uint256 amount,\n        uint256 price\n    ) public {\n        if (side == Side.BUY) {\n            require(balances[msg.sender][\"ETH\"] >= price.mul(amount));\n\n            //Order order = Order(side, msg.sender, ticker, amount, price);\n            //highest ==> lowest\n            // for (uint256 i = 0; i < buyOrders.length - 1; i++) {\n            //     if (price > buyOrders[i]) {}\n            // }\n        }\n\n        if (side == Side.SELL) {\n            require(balances[msg.sender][ticker] >= amount);\n\n            // Order[] buyOrders = getOrderBook(ticker, side);\n            // //highest ==> lowest\n            // for (uint256 i = 0; i < buyOrders.length - 1; i++) {\n            //     if (price > buyOrders[i]) {}\n            // }\n        }\n    }\n}\n",
  "sourcePath": "/Users/yanjun/Desktop/Solidity201/DEX/contracts/dex.sol",
  "compiler": {
    "name": "solc",
    "version": "0.8.0+commit.c7dfd78e.Emscripten.clang"
  },
  "schemaVersion": "3.4.1",
  "updatedAt": "2021-05-24T10:12:18.921Z",
  "devdoc": {
    "kind": "dev",
    "methods": {
      "owner()": {
        "details": "Returns the address of the current owner."
      },
      "renounceOwnership()": {
        "details": "Leaves the contract without owner. It will not be possible to call `onlyOwner` functions anymore. Can only be called by the current owner. NOTE: Renouncing ownership will leave the contract without an owner, thereby removing any functionality that is only available to the owner."
      },
      "transferOwnership(address)": {
        "details": "Transfers ownership of the contract to a new account (`newOwner`). Can only be called by the current owner."
      }
    },
    "version": 1
  },
  "userdoc": {
    "kind": "user",
    "methods": {},
    "version": 1
  }
}