{
  "contractName": "Dex",
  "abi": [
    {
      "anonymous": false,
      "inputs": [
        {
          "indexed": true,
          "internalType": "address",
          "name": "previousOwner",
          "type": "address"
        },
        {
          "indexed": true,
          "internalType": "address",
          "name": "newOwner",
          "type": "address"
        }
      ],
      "name": "OwnershipTransferred",
      "type": "event"
    },
    {
      "inputs": [
        {
          "internalType": "bytes32",
          "name": "ticker",
          "type": "bytes32"
        },
        {
          "internalType": "address",
          "name": "tokenAddress",
          "type": "address"
        }
      ],
      "name": "addToken",
      "outputs": [],
      "stateMutability": "nonpayable",
      "type": "function"
    },
    {
      "inputs": [
        {
          "internalType": "address",
          "name": "",
          "type": "address"
        },
        {
          "internalType": "bytes32",
          "name": "",
          "type": "bytes32"
        }
      ],
      "name": "balances",
      "outputs": [
        {
          "internalType": "uint256",
          "name": "",
          "type": "uint256"
        }
      ],
      "stateMutability": "view",
      "type": "function",
      "constant": true
    },
    {
      "inputs": [
        {
          "internalType": "uint256",
          "name": "amount",
          "type": "uint256"
        },
        {
          "internalType": "bytes32",
          "name": "ticker",
          "type": "bytes32"
        }
      ],
      "name": "deposit",
      "outputs": [],
      "stateMutability": "nonpayable",
      "type": "function"
    },
    {
      "inputs": [
        {
          "internalType": "address",
          "name": "_address",
          "type": "address"
        },
        {
          "internalType": "bytes32",
          "name": "ticker",
          "type": "bytes32"
        }
      ],
      "name": "getBalance",
      "outputs": [
        {
          "internalType": "uint256",
          "name": "",
          "type": "uint256"
        }
      ],
      "stateMutability": "view",
      "type": "function",
      "constant": true
    },
    {
      "inputs": [],
      "name": "owner",
      "outputs": [
        {
          "internalType": "address",
          "name": "",
          "type": "address"
        }
      ],
      "stateMutability": "view",
      "type": "function",
      "constant": true
    },
    {
      "inputs": [],
      "name": "renounceOwnership",
      "outputs": [],
      "stateMutability": "nonpayable",
      "type": "function"
    },
    {
      "inputs": [
        {
          "internalType": "uint256",
          "name": "",
          "type": "uint256"
        }
      ],
      "name": "tokenList",
      "outputs": [
        {
          "internalType": "bytes32",
          "name": "",
          "type": "bytes32"
        }
      ],
      "stateMutability": "view",
      "type": "function",
      "constant": true
    },
    {
      "inputs": [
        {
          "internalType": "bytes32",
          "name": "",
          "type": "bytes32"
        }
      ],
      "name": "tokenMapping",
      "outputs": [
        {
          "internalType": "bytes32",
          "name": "ticker",
          "type": "bytes32"
        },
        {
          "internalType": "address",
          "name": "tokenAddress",
          "type": "address"
        }
      ],
      "stateMutability": "view",
      "type": "function",
      "constant": true
    },
    {
      "inputs": [
        {
          "internalType": "address",
          "name": "newOwner",
          "type": "address"
        }
      ],
      "name": "transferOwnership",
      "outputs": [],
      "stateMutability": "nonpayable",
      "type": "function"
    },
    {
      "inputs": [
        {
          "internalType": "uint256",
          "name": "amount",
          "type": "uint256"
        },
        {
          "internalType": "bytes32",
          "name": "ticker",
          "type": "bytes32"
        }
      ],
      "name": "withdraw",
      "outputs": [],
      "stateMutability": "nonpayable",
      "type": "function"
    },
    {
      "inputs": [
        {
          "internalType": "bytes32",
          "name": "ticker",
          "type": "bytes32"
        },
        {
          "internalType": "enum Dex.Side",
          "name": "side",
          "type": "uint8"
        }
      ],
      "name": "getOrderBook",
      "outputs": [
        {
          "components": [
            {
              "internalType": "uint256",
              "name": "id",
              "type": "uint256"
            },
            {
              "internalType": "enum Dex.Side",
              "name": "side",
              "type": "uint8"
            },
            {
              "internalType": "address",
              "name": "trader",
              "type": "address"
            },
            {
              "internalType": "bytes32",
              "name": "ticker",
              "type": "bytes32"
            },
            {
              "internalType": "uint256",
              "name": "amount",
              "type": "uint256"
            },
            {
              "internalType": "uint256",
              "name": "price",
              "type": "uint256"
            }
          ],
          "internalType": "struct Dex.Order[]",
          "name": "",
          "type": "tuple[]"
        }
      ],
      "stateMutability": "view",
      "type": "function",
      "constant": true
    },
    {
      "inputs": [
        {
          "internalType": "enum Dex.Side",
          "name": "side",
          "type": "uint8"
        },
        {
          "internalType": "bytes32",
          "name": "ticker",
          "type": "bytes32"
        },
        {
          "internalType": "uint256",
          "name": "amount",
          "type": "uint256"
        },
        {
          "internalType": "uint256",
          "name": "price",
          "type": "uint256"
        }
      ],
      "name": "createLimitOrder",
      "outputs": [],
      "stateMutability": "nonpayable",
      "type": "function"
    }
  ],
  "bytecode": "0x608060405234801561001057600080fd5b5060006100216100c460201b60201c565b9050806000806101000a81548173ffffffffffffffffffffffffffffffffffffffff021916908373ffffffffffffffffffffffffffffffffffffffff1602179055508073ffffffffffffffffffffffffffffffffffffffff16600073ffffffffffffffffffffffffffffffffffffffff167f8be0079c531659141344cd1fd0a4f28419497f9722a3daafe3b4186f6b6457e060405160405180910390a3506100cc565b600033905090565b6125cb806100db6000396000f3fe608060405234801561001057600080fd5b50600436106100b45760003560e01c80639ead7222116100715780639ead72221461017a578063a8d2021a146101aa578063ba58ea68146101c6578063c79d5ec5146101f6578063c9630cb014610226578063f2fde38b14610242576100b4565b80631f14df69146100b9578063667cb4ba146100e95780636f3b62f91461011a578063715018a6146101365780638da5cb5b146101405780639776aacf1461015e575b600080fd5b6100d360048036038101906100ce9190611d35565b61025e565b6040516100e09190612284565b60405180910390f35b61010360048036038101906100fe9190611d9a565b610283565b6040516101119291906121fb565b60405180910390f35b610134600480360381019061012f9190611e3b565b6102c7565b005b61013e61115b565b005b610148611295565b6040516101559190612143565b60405180910390f35b61017860048036038101906101739190611dc3565b6112be565b005b610194600480360381019061018f9190611e9e565b6113f9565b6040516101a191906121e0565b60405180910390f35b6101c460048036038101906101bf9190611ec7565b61141d565b005b6101e060048036038101906101db9190611dff565b6116a1565b6040516101ed91906121be565b60405180910390f35b610210600480360381019061020b9190611d35565b611862565b60405161021d9190612284565b60405180910390f35b610240600480360381019061023b9190611ec7565b6118bd565b005b61025c60048036038101906102579190611d0c565b611ab0565b005b6003602052816000526040600020602052806000526040600020600091509150505481565b60016020528060005260406000206000915090508060000154908060010160009054906101000a900473ffffffffffffffffffffffffffffffffffffffff16905082565b60006001811115610301577f4e487b7100000000000000000000000000000000000000000000000000000000600052602160045260246000fd5b84600181111561033a577f4e487b7100000000000000000000000000000000000000000000000000000000600052602160045260246000fd5b14156103d4576103538282611c5990919063ffffffff16565b600360003373ffffffffffffffffffffffffffffffffffffffff1673ffffffffffffffffffffffffffffffffffffffff16815260200190815260200160002060007f455448000000000000000000000000000000000000000000000000000000000081526020019081526020016000205410156103cf57600080fd5b6104ab565b60018081111561040d577f4e487b7100000000000000000000000000000000000000000000000000000000600052602160045260246000fd5b846001811115610446577f4e487b7100000000000000000000000000000000000000000000000000000000600052602160045260246000fd5b14156104aa5781600360003373ffffffffffffffffffffffffffffffffffffffff1673ffffffffffffffffffffffffffffffffffffffff16815260200190815260200160002060008581526020019081526020016000205410156104a957600080fd5b5b5b60006005600085815260200190815260200160002060008660018111156104fb577f4e487b7100000000000000000000000000000000000000000000000000000000600052602160045260246000fd5b81526020019081526020016000209050806040518060c001604052806004548152602001876001811115610558577f4e487b7100000000000000000000000000000000000000000000000000000000600052602160045260246000fd5b81526020013373ffffffffffffffffffffffffffffffffffffffff1681526020018681526020018581526020018481525090806001815401808255809150506001900390600052602060002090600502016000909190919091506000820151816000015560208201518160010160006101000a81548160ff0219169083600181111561060d577f4e487b7100000000000000000000000000000000000000000000000000000000600052602160045260246000fd5b021790555060408201518160010160016101000a81548173ffffffffffffffffffffffffffffffffffffffff021916908373ffffffffffffffffffffffffffffffffffffffff160217905550606082015181600201556080820151816003015560a08201518160040155505060008082805490501161068d57600061069f565b6001828054905061069e9190612399565b5b9050600060018111156106db577f4e487b7100000000000000000000000000000000000000000000000000000000600052602160045260246000fd5b866001811115610714577f4e487b7100000000000000000000000000000000000000000000000000000000600052602160045260246000fd5b1415610bf0575b6000811115610beb57816001826107329190612399565b81548110610769577f4e487b7100000000000000000000000000000000000000000000000000000000600052603260045260246000fd5b9060005260206000209060050201600401548282815481106107b4577f4e487b7100000000000000000000000000000000000000000000000000000000600052603260045260246000fd5b90600052602060002090600502016004015410156107d157610beb565b6000826001836107e19190612399565b81548110610818577f4e487b7100000000000000000000000000000000000000000000000000000000600052603260045260246000fd5b90600052602060002090600502016040518060c0016040529081600082015481526020016001820160009054906101000a900460ff166001811115610886577f4e487b7100000000000000000000000000000000000000000000000000000000600052602160045260246000fd5b60018111156108be577f4e487b7100000000000000000000000000000000000000000000000000000000600052602160045260246000fd5b81526020016001820160019054906101000a900473ffffffffffffffffffffffffffffffffffffffff1673ffffffffffffffffffffffffffffffffffffffff1673ffffffffffffffffffffffffffffffffffffffff16815260200160028201548152602001600382015481526020016004820154815250509050828281548110610971577f4e487b7100000000000000000000000000000000000000000000000000000000600052603260045260246000fd5b90600052602060002090600502018360018461098d9190612399565b815481106109c4577f4e487b7100000000000000000000000000000000000000000000000000000000600052603260045260246000fd5b9060005260206000209060050201600082015481600001556001820160009054906101000a900460ff168160010160006101000a81548160ff02191690836001811115610a3a577f4e487b7100000000000000000000000000000000000000000000000000000000600052602160045260246000fd5b02179055506001820160019054906101000a900473ffffffffffffffffffffffffffffffffffffffff168160010160016101000a81548173ffffffffffffffffffffffffffffffffffffffff021916908373ffffffffffffffffffffffffffffffffffffffff16021790555060028201548160020155600382015481600301556004820154816004015590505080838381548110610b01577f4e487b7100000000000000000000000000000000000000000000000000000000600052603260045260246000fd5b90600052602060002090600502016000820151816000015560208201518160010160006101000a81548160ff02191690836001811115610b6a577f4e487b7100000000000000000000000000000000000000000000000000000000600052602160045260246000fd5b021790555060408201518160010160016101000a81548173ffffffffffffffffffffffffffffffffffffffff021916908373ffffffffffffffffffffffffffffffffffffffff160217905550606082015181600201556080820151816003015560a082015181600401559050508180610be290612444565b9250505061071b565b61113b565b600180811115610c29577f4e487b7100000000000000000000000000000000000000000000000000000000600052602160045260246000fd5b866001811115610c62577f4e487b7100000000000000000000000000000000000000000000000000000000600052602160045260246000fd5b141561113a575b60008111156111395781600182610c809190612399565b81548110610cb7577f4e487b7100000000000000000000000000000000000000000000000000000000600052603260045260246000fd5b906000526020600020906005020160040154828281548110610d02577f4e487b7100000000000000000000000000000000000000000000000000000000600052603260045260246000fd5b9060005260206000209060050201600401541115610d1f57611139565b600082600183610d2f9190612399565b81548110610d66577f4e487b7100000000000000000000000000000000000000000000000000000000600052603260045260246000fd5b90600052602060002090600502016040518060c0016040529081600082015481526020016001820160009054906101000a900460ff166001811115610dd4577f4e487b7100000000000000000000000000000000000000000000000000000000600052602160045260246000fd5b6001811115610e0c577f4e487b7100000000000000000000000000000000000000000000000000000000600052602160045260246000fd5b81526020016001820160019054906101000a900473ffffffffffffffffffffffffffffffffffffffff1673ffffffffffffffffffffffffffffffffffffffff1673ffffffffffffffffffffffffffffffffffffffff16815260200160028201548152602001600382015481526020016004820154815250509050828281548110610ebf577f4e487b7100000000000000000000000000000000000000000000000000000000600052603260045260246000fd5b906000526020600020906005020183600184610edb9190612399565b81548110610f12577f4e487b7100000000000000000000000000000000000000000000000000000000600052603260045260246000fd5b9060005260206000209060050201600082015481600001556001820160009054906101000a900460ff168160010160006101000a81548160ff02191690836001811115610f88577f4e487b7100000000000000000000000000000000000000000000000000000000600052602160045260246000fd5b02179055506001820160019054906101000a900473ffffffffffffffffffffffffffffffffffffffff168160010160016101000a81548173ffffffffffffffffffffffffffffffffffffffff021916908373ffffffffffffffffffffffffffffffffffffffff1602179055506002820154816002015560038201548160030155600482015481600401559050508083838154811061104f577f4e487b7100000000000000000000000000000000000000000000000000000000600052603260045260246000fd5b90600052602060002090600502016000820151816000015560208201518160010160006101000a81548160ff021916908360018111156110b8577f4e487b7100000000000000000000000000000000000000000000000000000000600052602160045260246000fd5b021790555060408201518160010160016101000a81548173ffffffffffffffffffffffffffffffffffffffff021916908373ffffffffffffffffffffffffffffffffffffffff160217905550606082015181600201556080820151816003015560a08201518160040155905050818061113090612444565b92505050610c69565b5b5b6004600081548092919061114e9061246e565b9190505550505050505050565b611163611c6f565b73ffffffffffffffffffffffffffffffffffffffff16611181611295565b73ffffffffffffffffffffffffffffffffffffffff16146111d7576040517f08c379a00000000000000000000000000000000000000000000000000000000081526004016111ce90612264565b60405180910390fd5b600073ffffffffffffffffffffffffffffffffffffffff1660008054906101000a900473ffffffffffffffffffffffffffffffffffffffff1673ffffffffffffffffffffffffffffffffffffffff167f8be0079c531659141344cd1fd0a4f28419497f9722a3daafe3b4186f6b6457e060405160405180910390a360008060006101000a81548173ffffffffffffffffffffffffffffffffffffffff021916908373ffffffffffffffffffffffffffffffffffffffff160217905550565b60008060009054906101000a900473ffffffffffffffffffffffffffffffffffffffff16905090565b6112c6611c6f565b73ffffffffffffffffffffffffffffffffffffffff166112e4611295565b73ffffffffffffffffffffffffffffffffffffffff161461133a576040517f08c379a000000000000000000000000000000000000000000000000000000000815260040161133190612264565b60405180910390fd5b60405180604001604052808381526020018273ffffffffffffffffffffffffffffffffffffffff16815250600160008481526020019081526020016000206000820151816000015560208201518160010160006101000a81548173ffffffffffffffffffffffffffffffffffffffff021916908373ffffffffffffffffffffffffffffffffffffffff16021790555090505060028290806001815401808255809150506001900390600052602060002001600090919091909150555050565b6002818154811061140957600080fd5b906000526020600020016000915090505481565b80600073ffffffffffffffffffffffffffffffffffffffff166001600083815260200190815260200160002060010160009054906101000a900473ffffffffffffffffffffffffffffffffffffffff1673ffffffffffffffffffffffffffffffffffffffff16141561148e57600080fd5b82600360003373ffffffffffffffffffffffffffffffffffffffff1673ffffffffffffffffffffffffffffffffffffffff1681526020019081526020016000206000848152602001908152602001600020541015611521576040517f08c379a000000000000000000000000000000000000000000000000000000000815260040161151890612244565b60405180910390fd5b61158483600360003373ffffffffffffffffffffffffffffffffffffffff1673ffffffffffffffffffffffffffffffffffffffff168152602001908152602001600020600085815260200190815260200160002054611c7790919063ffffffff16565b600360003373ffffffffffffffffffffffffffffffffffffffff1673ffffffffffffffffffffffffffffffffffffffff1681526020019081526020016000206000848152602001908152602001600020819055506001600083815260200190815260200160002060010160009054906101000a900473ffffffffffffffffffffffffffffffffffffffff1673ffffffffffffffffffffffffffffffffffffffff1663a9059cbb33856040518363ffffffff1660e01b8152600401611649929190612195565b602060405180830381600087803b15801561166357600080fd5b505af1158015611677573d6000803e3d6000fd5b505050506040513d601f19601f8201168201806040525081019061169b9190611d71565b50505050565b60606005600084815260200190815260200160002060008360018111156116f1577f4e487b7100000000000000000000000000000000000000000000000000000000600052602160045260246000fd5b8152602001908152602001600020805480602002602001604051908101604052809291908181526020016000905b8282101561185657838290600052602060002090600502016040518060c0016040529081600082015481526020016001820160009054906101000a900460ff166001811115611797577f4e487b7100000000000000000000000000000000000000000000000000000000600052602160045260246000fd5b60018111156117cf577f4e487b7100000000000000000000000000000000000000000000000000000000600052602160045260246000fd5b81526020016001820160019054906101000a900473ffffffffffffffffffffffffffffffffffffffff1673ffffffffffffffffffffffffffffffffffffffff1673ffffffffffffffffffffffffffffffffffffffff16815260200160028201548152602001600382015481526020016004820154815250508152602001906001019061171f565b50505050905092915050565b6000600360008473ffffffffffffffffffffffffffffffffffffffff1673ffffffffffffffffffffffffffffffffffffffff168152602001908152602001600020600083815260200190815260200160002054905092915050565b80600073ffffffffffffffffffffffffffffffffffffffff166001600083815260200190815260200160002060010160009054906101000a900473ffffffffffffffffffffffffffffffffffffffff1673ffffffffffffffffffffffffffffffffffffffff16141561192e57600080fd5b6001600083815260200190815260200160002060010160009054906101000a900473ffffffffffffffffffffffffffffffffffffffff1673ffffffffffffffffffffffffffffffffffffffff166323b872dd3330866040518463ffffffff1660e01b81526004016119a19392919061215e565b602060405180830381600087803b1580156119bb57600080fd5b505af11580156119cf573d6000803e3d6000fd5b505050506040513d601f19601f820116820180604052508101906119f39190611d71565b50611a5783600360003373ffffffffffffffffffffffffffffffffffffffff1673ffffffffffffffffffffffffffffffffffffffff168152602001908152602001600020600085815260200190815260200160002054611c8d90919063ffffffff16565b600360003373ffffffffffffffffffffffffffffffffffffffff1673ffffffffffffffffffffffffffffffffffffffff168152602001908152602001600020600084815260200190815260200160002081905550505050565b611ab8611c6f565b73ffffffffffffffffffffffffffffffffffffffff16611ad6611295565b73ffffffffffffffffffffffffffffffffffffffff1614611b2c576040517f08c379a0000000000000000000000000000000000000000000000000000000008152600401611b2390612264565b60405180910390fd5b600073ffffffffffffffffffffffffffffffffffffffff168173ffffffffffffffffffffffffffffffffffffffff161415611b9c576040517f08c379a0000000000000000000000000000000000000000000000000000000008152600401611b9390612224565b60405180910390fd5b8073ffffffffffffffffffffffffffffffffffffffff1660008054906101000a900473ffffffffffffffffffffffffffffffffffffffff1673ffffffffffffffffffffffffffffffffffffffff167f8be0079c531659141344cd1fd0a4f28419497f9722a3daafe3b4186f6b6457e060405160405180910390a3806000806101000a81548173ffffffffffffffffffffffffffffffffffffffff021916908373ffffffffffffffffffffffffffffffffffffffff16021790555050565b60008183611c67919061233f565b905092915050565b600033905090565b60008183611c859190612399565b905092915050565b60008183611c9b91906122e9565b905092915050565b600081359050611cb281612529565b92915050565b600081519050611cc781612540565b92915050565b600081359050611cdc81612557565b92915050565b600081359050611cf18161256e565b92915050565b600081359050611d068161257e565b92915050565b600060208284031215611d1e57600080fd5b6000611d2c84828501611ca3565b91505092915050565b60008060408385031215611d4857600080fd5b6000611d5685828601611ca3565b9250506020611d6785828601611ccd565b9150509250929050565b600060208284031215611d8357600080fd5b6000611d9184828501611cb8565b91505092915050565b600060208284031215611dac57600080fd5b6000611dba84828501611ccd565b91505092915050565b60008060408385031215611dd657600080fd5b6000611de485828601611ccd565b9250506020611df585828601611ca3565b9150509250929050565b60008060408385031215611e1257600080fd5b6000611e2085828601611ccd565b9250506020611e3185828601611ce2565b9150509250929050565b60008060008060808587031215611e5157600080fd5b6000611e5f87828801611ce2565b9450506020611e7087828801611ccd565b9350506040611e8187828801611cf7565b9250506060611e9287828801611cf7565b91505092959194509250565b600060208284031215611eb057600080fd5b6000611ebe84828501611cf7565b91505092915050565b60008060408385031215611eda57600080fd5b6000611ee885828601611cf7565b9250506020611ef985828601611ccd565b9150509250929050565b6000611f0f83836120aa565b60c08301905092915050565b611f24816123cd565b82525050565b611f33816123cd565b82525050565b6000611f44826122af565b611f4e81856122c7565b9350611f598361229f565b8060005b83811015611f8a578151611f718882611f03565b9750611f7c836122ba565b925050600181019050611f5d565b5085935050505092915050565b611fa0816123eb565b82525050565b611faf816123eb565b82525050565b611fbe81612432565b82525050565b6000611fd16026836122d8565b91507f4f776e61626c653a206e6577206f776e657220697320746865207a65726f206160008301527f64647265737300000000000000000000000000000000000000000000000000006020830152604082019050919050565b60006120376015836122d8565b91507f696e7375666669636e69656e742062616c616e636500000000000000000000006000830152602082019050919050565b60006120776020836122d8565b91507f4f776e61626c653a2063616c6c6572206973206e6f7420746865206f776e65726000830152602082019050919050565b60c0820160008201516120c06000850182612125565b5060208201516120d36020850182611fb5565b5060408201516120e66040850182611f1b565b5060608201516120f96060850182611f97565b50608082015161210c6080850182612125565b5060a082015161211f60a0850182612125565b50505050565b61212e81612428565b82525050565b61213d81612428565b82525050565b60006020820190506121586000830184611f2a565b92915050565b60006060820190506121736000830186611f2a565b6121806020830185611f2a565b61218d6040830184612134565b949350505050565b60006040820190506121aa6000830185611f2a565b6121b76020830184612134565b9392505050565b600060208201905081810360008301526121d88184611f39565b905092915050565b60006020820190506121f56000830184611fa6565b92915050565b60006040820190506122106000830185611fa6565b61221d6020830184611f2a565b9392505050565b6000602082019050818103600083015261223d81611fc4565b9050919050565b6000602082019050818103600083015261225d8161202a565b9050919050565b6000602082019050818103600083015261227d8161206a565b9050919050565b60006020820190506122996000830184612134565b92915050565b6000819050602082019050919050565b600081519050919050565b6000602082019050919050565b600082825260208201905092915050565b600082825260208201905092915050565b60006122f482612428565b91506122ff83612428565b9250827fffffffffffffffffffffffffffffffffffffffffffffffffffffffffffffffff03821115612334576123336124b7565b5b828201905092915050565b600061234a82612428565b915061235583612428565b9250817fffffffffffffffffffffffffffffffffffffffffffffffffffffffffffffffff048311821515161561238e5761238d6124b7565b5b828202905092915050565b60006123a482612428565b91506123af83612428565b9250828210156123c2576123c16124b7565b5b828203905092915050565b60006123d882612408565b9050919050565b60008115159050919050565b6000819050919050565b600081905061240382612515565b919050565b600073ffffffffffffffffffffffffffffffffffffffff82169050919050565b6000819050919050565b600061243d826123f5565b9050919050565b600061244f82612428565b91506000821415612463576124626124b7565b5b600182039050919050565b600061247982612428565b91507fffffffffffffffffffffffffffffffffffffffffffffffffffffffffffffffff8214156124ac576124ab6124b7565b5b600182019050919050565b7f4e487b7100000000000000000000000000000000000000000000000000000000600052601160045260246000fd5b7f4e487b7100000000000000000000000000000000000000000000000000000000600052602160045260246000fd5b60028110612526576125256124e6565b5b50565b612532816123cd565b811461253d57600080fd5b50565b612549816123df565b811461255457600080fd5b50565b612560816123eb565b811461256b57600080fd5b50565b6002811061257b57600080fd5b50565b61258781612428565b811461259257600080fd5b5056fea2646970667358221220f2b3a1ae359668170a44a309d1c2d6babaff2d8dab1c0aa16469662b35fe50d364736f6c63430008000033",
  "immutableReferences": {},
  "source": "pragma solidity 0.8.0;\n//pragma experimental ABIEncoderV2;\n//standard feature since solc v0.8.0: ABI coder v2 is activated by default.\n\nimport \"./wallet.sol\";\n\ncontract Dex is Wallet {\n    using SafeMath for uint256;\n\n    enum Side {\n        BUY, //0\n        SELL //1\n    }\n\n    struct Order {\n        uint256 id;\n        Side side;\n        address trader;\n        bytes32 ticker;\n        uint256 amount;\n        uint256 price;\n    }\n    uint256 nextOrderId;\n    //an actual orderbook split into bids and asks\n    // need one orderbook for each assets\n    // assets => mapping(BUY/SELL => Order[])\n    mapping(bytes32 => mapping(uint256 => Order[])) orderbook;\n\n    function getOrderBook(bytes32 ticker, Side side)\n        public\n        view\n        returns (Order[] memory)\n    {\n        return orderbook[ticker][uint256(side)]; // getOrderBook(bytes32(\"LINK\", Side.BUY))\n    }\n\n    function createLimitOrder(\n        Side side,\n        bytes32 ticker,\n        uint256 amount,\n        uint256 price\n    ) public {\n        if (side == Side.BUY) {\n            require(balances[msg.sender][\"ETH\"] >= price.mul(amount));\n        } else if (side == Side.SELL) {\n            require(balances[msg.sender][ticker] >= amount);\n        }\n\n        Order[] storage orders = orderbook[ticker][uint256(side)];\n        orders.push(\n            Order(nextOrderId, side, msg.sender, ticker, amount, price)\n        );\n        // //bubbleSort\n        uint256 i = orders.length > 0 ? orders.length - 1 : 0;\n        if (side == Side.BUY) {\n            while (i > 0) {\n                if (orders[i].price < orders[i - 1].price) {\n                    break;\n                }\n                Order memory toBeMoved = orders[i - 1];\n                orders[i - 1] = orders[i];\n                orders[i] = toBeMoved;\n                i--;\n            }\n        } else if (side == Side.SELL) {\n            while (i > 0) {\n                if (orders[i].price > orders[i - 1].price) {\n                    break;\n                }\n                Order memory toBeMoved = orders[i - 1];\n                orders[i - 1] = orders[i];\n                orders[i] = toBeMoved;\n                i--;\n            }\n        }\n\n        // if (side == Side.BUY) {\n        //     uint256 i = orders.length > 1 ? orders.length - 2 : 0;\n        //     while (orders[orders.length - 1].price > orders[i].price && i > 0) {\n        //         Order memory left = orders[i];\n        //         orders[i] = orders[orders.length - 1];\n        //         orders[orders.length - 1] = left;\n        //         i--;\n        //     }\n        // } else if (side == Side.SELL) {\n        //     uint256 i = orders.length > 1 ? orders.length - 2 : 0;\n        //     while (orders[orders.length - 1].price < orders[i].price && i > 0) {\n        //         Order memory left = orders[i];\n        //         orders[i] = orders[orders.length - 1];\n        //         orders[orders.length - 1] = left;\n        //         i--;\n        //     }\n        // }\n\n        nextOrderId++;\n    }\n}\n",
  "sourcePath": "/Users/yanjun/Desktop/Solidity201/DEX/contracts/dex.sol",
  "compiler": {
    "name": "solc",
    "version": "0.8.0+commit.c7dfd78e.Emscripten.clang"
  },
  "schemaVersion": "3.4.1",
  "updatedAt": "2021-05-25T15:18:41.242Z",
  "networkType": "ethereum",
  "devdoc": {
    "kind": "dev",
    "methods": {
      "owner()": {
        "details": "Returns the address of the current owner."
      },
      "renounceOwnership()": {
        "details": "Leaves the contract without owner. It will not be possible to call `onlyOwner` functions anymore. Can only be called by the current owner. NOTE: Renouncing ownership will leave the contract without an owner, thereby removing any functionality that is only available to the owner."
      },
      "transferOwnership(address)": {
        "details": "Transfers ownership of the contract to a new account (`newOwner`). Can only be called by the current owner."
      }
    },
    "version": 1
  },
  "userdoc": {
    "kind": "user",
    "methods": {},
    "version": 1
  }
}