{
  "contractName": "Wallet",
  "abi": [
    {
      "anonymous": false,
      "inputs": [
        {
          "indexed": true,
          "internalType": "address",
          "name": "previousOwner",
          "type": "address"
        },
        {
          "indexed": true,
          "internalType": "address",
          "name": "newOwner",
          "type": "address"
        }
      ],
      "name": "OwnershipTransferred",
      "type": "event"
    },
    {
      "inputs": [
        {
          "internalType": "address",
          "name": "",
          "type": "address"
        },
        {
          "internalType": "bytes32",
          "name": "",
          "type": "bytes32"
        }
      ],
      "name": "balances",
      "outputs": [
        {
          "internalType": "uint256",
          "name": "",
          "type": "uint256"
        }
      ],
      "stateMutability": "view",
      "type": "function"
    },
    {
      "inputs": [],
      "name": "owner",
      "outputs": [
        {
          "internalType": "address",
          "name": "",
          "type": "address"
        }
      ],
      "stateMutability": "view",
      "type": "function"
    },
    {
      "inputs": [],
      "name": "renounceOwnership",
      "outputs": [],
      "stateMutability": "nonpayable",
      "type": "function"
    },
    {
      "inputs": [
        {
          "internalType": "uint256",
          "name": "",
          "type": "uint256"
        }
      ],
      "name": "tokenList",
      "outputs": [
        {
          "internalType": "bytes32",
          "name": "",
          "type": "bytes32"
        }
      ],
      "stateMutability": "view",
      "type": "function"
    },
    {
      "inputs": [
        {
          "internalType": "bytes32",
          "name": "",
          "type": "bytes32"
        }
      ],
      "name": "tokenMapping",
      "outputs": [
        {
          "internalType": "bytes32",
          "name": "ticker",
          "type": "bytes32"
        },
        {
          "internalType": "address",
          "name": "tokenAddress",
          "type": "address"
        }
      ],
      "stateMutability": "view",
      "type": "function"
    },
    {
      "inputs": [
        {
          "internalType": "address",
          "name": "newOwner",
          "type": "address"
        }
      ],
      "name": "transferOwnership",
      "outputs": [],
      "stateMutability": "nonpayable",
      "type": "function"
    },
    {
      "inputs": [
        {
          "internalType": "address",
          "name": "_address",
          "type": "address"
        },
        {
          "internalType": "bytes32",
          "name": "ticker",
          "type": "bytes32"
        }
      ],
      "name": "getBalance",
      "outputs": [
        {
          "internalType": "uint256",
          "name": "",
          "type": "uint256"
        }
      ],
      "stateMutability": "view",
      "type": "function"
    },
    {
      "inputs": [
        {
          "internalType": "bytes32",
          "name": "ticker",
          "type": "bytes32"
        },
        {
          "internalType": "address",
          "name": "tokenAddress",
          "type": "address"
        }
      ],
      "name": "addToken",
      "outputs": [],
      "stateMutability": "nonpayable",
      "type": "function"
    },
    {
      "inputs": [
        {
          "internalType": "uint256",
          "name": "amount",
          "type": "uint256"
        },
        {
          "internalType": "bytes32",
          "name": "ticker",
          "type": "bytes32"
        }
      ],
      "name": "deposit",
      "outputs": [],
      "stateMutability": "nonpayable",
      "type": "function"
    },
    {
      "inputs": [
        {
          "internalType": "uint256",
          "name": "amount",
          "type": "uint256"
        },
        {
          "internalType": "bytes32",
          "name": "ticker",
          "type": "bytes32"
        }
      ],
      "name": "withdraw",
      "outputs": [],
      "stateMutability": "nonpayable",
      "type": "function"
    }
  ],
  "bytecode": "0x608060405234801561001057600080fd5b5060006100216100c460201b60201c565b9050806000806101000a81548173ffffffffffffffffffffffffffffffffffffffff021916908373ffffffffffffffffffffffffffffffffffffffff1602179055508073ffffffffffffffffffffffffffffffffffffffff16600073ffffffffffffffffffffffffffffffffffffffff167f8be0079c531659141344cd1fd0a4f28419497f9722a3daafe3b4186f6b6457e060405160405180910390a3506100cc565b600033905090565b61117d806100db6000396000f3fe608060405234801561001057600080fd5b506004361061009e5760003560e01c80639ead7222116100665780639ead722214610148578063a8d2021a14610178578063c79d5ec514610194578063c9630cb0146101c4578063f2fde38b146101e05761009e565b80631f14df69146100a3578063667cb4ba146100d3578063715018a6146101045780638da5cb5b1461010e5780639776aacf1461012c575b600080fd5b6100bd60048036038101906100b89190610c53565b6101fc565b6040516100ca9190610fb4565b60405180910390f35b6100ed60048036038101906100e89190610cb8565b610221565b6040516100fb929190610f2b565b60405180910390f35b61010c610265565b005b61011661039f565b6040516101239190610e95565b60405180910390f35b61014660048036038101906101419190610ce1565b6103c8565b005b610162600480360381019061015d9190610d1d565b610503565b60405161016f9190610f10565b60405180910390f35b610192600480360381019061018d9190610d46565b610527565b005b6101ae60048036038101906101a99190610c53565b6107ab565b6040516101bb9190610fb4565b60405180910390f35b6101de60048036038101906101d99190610d46565b610806565b005b6101fa60048036038101906101f59190610c2a565b6109f9565b005b6003602052816000526040600020602052806000526040600020600091509150505481565b60016020528060005260406000206000915090508060000154908060010160009054906101000a900473ffffffffffffffffffffffffffffffffffffffff16905082565b61026d610ba2565b73ffffffffffffffffffffffffffffffffffffffff1661028b61039f565b73ffffffffffffffffffffffffffffffffffffffff16146102e1576040517f08c379a00000000000000000000000000000000000000000000000000000000081526004016102d890610f94565b60405180910390fd5b600073ffffffffffffffffffffffffffffffffffffffff1660008054906101000a900473ffffffffffffffffffffffffffffffffffffffff1673ffffffffffffffffffffffffffffffffffffffff167f8be0079c531659141344cd1fd0a4f28419497f9722a3daafe3b4186f6b6457e060405160405180910390a360008060006101000a81548173ffffffffffffffffffffffffffffffffffffffff021916908373ffffffffffffffffffffffffffffffffffffffff160217905550565b60008060009054906101000a900473ffffffffffffffffffffffffffffffffffffffff16905090565b6103d0610ba2565b73ffffffffffffffffffffffffffffffffffffffff166103ee61039f565b73ffffffffffffffffffffffffffffffffffffffff1614610444576040517f08c379a000000000000000000000000000000000000000000000000000000000815260040161043b90610f94565b60405180910390fd5b60405180604001604052808381526020018273ffffffffffffffffffffffffffffffffffffffff16815250600160008481526020019081526020016000206000820151816000015560208201518160010160006101000a81548173ffffffffffffffffffffffffffffffffffffffff021916908373ffffffffffffffffffffffffffffffffffffffff16021790555090505060028290806001815401808255809150506001900390600052602060002001600090919091909150555050565b6002818154811061051357600080fd5b906000526020600020016000915090505481565b80600073ffffffffffffffffffffffffffffffffffffffff166001600083815260200190815260200160002060010160009054906101000a900473ffffffffffffffffffffffffffffffffffffffff1673ffffffffffffffffffffffffffffffffffffffff16141561059857600080fd5b82600360003373ffffffffffffffffffffffffffffffffffffffff1673ffffffffffffffffffffffffffffffffffffffff168152602001908152602001600020600084815260200190815260200160002054101561062b576040517f08c379a000000000000000000000000000000000000000000000000000000000815260040161062290610f74565b60405180910390fd5b61068e83600360003373ffffffffffffffffffffffffffffffffffffffff1673ffffffffffffffffffffffffffffffffffffffff168152602001908152602001600020600085815260200190815260200160002054610baa90919063ffffffff16565b600360003373ffffffffffffffffffffffffffffffffffffffff1673ffffffffffffffffffffffffffffffffffffffff1681526020019081526020016000206000848152602001908152602001600020819055506001600083815260200190815260200160002060010160009054906101000a900473ffffffffffffffffffffffffffffffffffffffff1673ffffffffffffffffffffffffffffffffffffffff1663a9059cbb33856040518363ffffffff1660e01b8152600401610753929190610ee7565b602060405180830381600087803b15801561076d57600080fd5b505af1158015610781573d6000803e3d6000fd5b505050506040513d601f19601f820116820180604052508101906107a59190610c8f565b50505050565b6000600360008473ffffffffffffffffffffffffffffffffffffffff1673ffffffffffffffffffffffffffffffffffffffff168152602001908152602001600020600083815260200190815260200160002054905092915050565b80600073ffffffffffffffffffffffffffffffffffffffff166001600083815260200190815260200160002060010160009054906101000a900473ffffffffffffffffffffffffffffffffffffffff1673ffffffffffffffffffffffffffffffffffffffff16141561087757600080fd5b6001600083815260200190815260200160002060010160009054906101000a900473ffffffffffffffffffffffffffffffffffffffff1673ffffffffffffffffffffffffffffffffffffffff166323b872dd3330866040518463ffffffff1660e01b81526004016108ea93929190610eb0565b602060405180830381600087803b15801561090457600080fd5b505af1158015610918573d6000803e3d6000fd5b505050506040513d601f19601f8201168201806040525081019061093c9190610c8f565b506109a083600360003373ffffffffffffffffffffffffffffffffffffffff1673ffffffffffffffffffffffffffffffffffffffff168152602001908152602001600020600085815260200190815260200160002054610bc090919063ffffffff16565b600360003373ffffffffffffffffffffffffffffffffffffffff1673ffffffffffffffffffffffffffffffffffffffff168152602001908152602001600020600084815260200190815260200160002081905550505050565b610a01610ba2565b73ffffffffffffffffffffffffffffffffffffffff16610a1f61039f565b73ffffffffffffffffffffffffffffffffffffffff1614610a75576040517f08c379a0000000000000000000000000000000000000000000000000000000008152600401610a6c90610f94565b60405180910390fd5b600073ffffffffffffffffffffffffffffffffffffffff168173ffffffffffffffffffffffffffffffffffffffff161415610ae5576040517f08c379a0000000000000000000000000000000000000000000000000000000008152600401610adc90610f54565b60405180910390fd5b8073ffffffffffffffffffffffffffffffffffffffff1660008054906101000a900473ffffffffffffffffffffffffffffffffffffffff1673ffffffffffffffffffffffffffffffffffffffff167f8be0079c531659141344cd1fd0a4f28419497f9722a3daafe3b4186f6b6457e060405160405180910390a3806000806101000a81548173ffffffffffffffffffffffffffffffffffffffff021916908373ffffffffffffffffffffffffffffffffffffffff16021790555050565b600033905090565b60008183610bb89190611036565b905092915050565b60008183610bce9190610fe0565b905092915050565b600081359050610be5816110eb565b92915050565b600081519050610bfa81611102565b92915050565b600081359050610c0f81611119565b92915050565b600081359050610c2481611130565b92915050565b600060208284031215610c3c57600080fd5b6000610c4a84828501610bd6565b91505092915050565b60008060408385031215610c6657600080fd5b6000610c7485828601610bd6565b9250506020610c8585828601610c00565b9150509250929050565b600060208284031215610ca157600080fd5b6000610caf84828501610beb565b91505092915050565b600060208284031215610cca57600080fd5b6000610cd884828501610c00565b91505092915050565b60008060408385031215610cf457600080fd5b6000610d0285828601610c00565b9250506020610d1385828601610bd6565b9150509250929050565b600060208284031215610d2f57600080fd5b6000610d3d84828501610c15565b91505092915050565b60008060408385031215610d5957600080fd5b6000610d6785828601610c15565b9250506020610d7885828601610c00565b9150509250929050565b610d8b8161106a565b82525050565b610d9a81611088565b82525050565b6000610dad602683610fcf565b91507f4f776e61626c653a206e6577206f776e657220697320746865207a65726f206160008301527f64647265737300000000000000000000000000000000000000000000000000006020830152604082019050919050565b6000610e13601583610fcf565b91507f696e7375666669636e69656e742062616c616e636500000000000000000000006000830152602082019050919050565b6000610e53602083610fcf565b91507f4f776e61626c653a2063616c6c6572206973206e6f7420746865206f776e65726000830152602082019050919050565b610e8f816110b2565b82525050565b6000602082019050610eaa6000830184610d82565b92915050565b6000606082019050610ec56000830186610d82565b610ed26020830185610d82565b610edf6040830184610e86565b949350505050565b6000604082019050610efc6000830185610d82565b610f096020830184610e86565b9392505050565b6000602082019050610f256000830184610d91565b92915050565b6000604082019050610f406000830185610d91565b610f4d6020830184610d82565b9392505050565b60006020820190508181036000830152610f6d81610da0565b9050919050565b60006020820190508181036000830152610f8d81610e06565b9050919050565b60006020820190508181036000830152610fad81610e46565b9050919050565b6000602082019050610fc96000830184610e86565b92915050565b600082825260208201905092915050565b6000610feb826110b2565b9150610ff6836110b2565b9250827fffffffffffffffffffffffffffffffffffffffffffffffffffffffffffffffff0382111561102b5761102a6110bc565b5b828201905092915050565b6000611041826110b2565b915061104c836110b2565b92508282101561105f5761105e6110bc565b5b828203905092915050565b600061107582611092565b9050919050565b60008115159050919050565b6000819050919050565b600073ffffffffffffffffffffffffffffffffffffffff82169050919050565b6000819050919050565b7f4e487b7100000000000000000000000000000000000000000000000000000000600052601160045260246000fd5b6110f48161106a565b81146110ff57600080fd5b50565b61110b8161107c565b811461111657600080fd5b50565b61112281611088565b811461112d57600080fd5b50565b611139816110b2565b811461114457600080fd5b5056fea2646970667358221220272a38f00b31aa7aebce387b49214f8a418ee1288ece9f8cf3f1bf6beae14cb964736f6c63430008000033",
  "immutableReferences": {},
  "source": "pragma solidity 0.8.0;\n\nimport \"../node_modules/@openzeppelin/contracts/token/ERC20/IERC20.sol\";\nimport \"../node_modules/@openzeppelin/contracts/utils/math/SafeMath.sol\";\nimport \"../node_modules/@openzeppelin/contracts/access/Ownable.sol\";\n\ncontract Wallet is Ownable {\n    using SafeMath for uint256;\n\n    struct Token {\n        bytes32 ticker;\n        address tokenAddress; //call token contracts in order to make transfer calls\n    }\n    mapping(bytes32 => Token) public tokenMapping; //in order to quickily search and update\n    bytes32[] public tokenList; // in order to iterate\n\n    mapping(address => mapping(bytes32 => uint256)) public balances; // address=> tokenSymbol=> balances\n\n    modifier isTokenExists(bytes32 ticker) {\n        require(tokenMapping[ticker].tokenAddress != address(0));\n        _;\n    }\n\n    function getBalance(address _address, bytes32 ticker)\n        public\n        view\n        returns (uint256)\n    {\n        return balances[_address][ticker];\n    }\n\n    function addToken(bytes32 ticker, address tokenAddress) external onlyOwner {\n        tokenMapping[ticker] = Token(ticker, tokenAddress);\n        tokenList.push(ticker);\n    }\n\n    function deposit(uint256 amount, bytes32 ticker)\n        external\n        isTokenExists(ticker)\n    {\n        IERC20(tokenMapping[ticker].tokenAddress).transferFrom(\n            msg.sender,\n            address(this),\n            amount\n        );\n        balances[msg.sender][ticker] = balances[msg.sender][ticker].add(amount);\n    }\n\n    // function depositETH(uint256 amount) external {\n    //     deposit(amount, \"ETH\");\n    // }\n\n    function withdraw(uint256 amount, bytes32 ticker)\n        external\n        isTokenExists(ticker)\n    {\n        // from this contract to msg.sender\n        // we just held the tokens for owners in this DEX\n\n        // this function is interacting with actual token contract. in order to\n        // trasfer tokens between the user's ownership and our contract's ownership\n        // we need to interact with ERC token contract\n        // to interact with another contract -- we need interface and address\n        // --> what the contract looks like and where the contract is\n        require( //check\n            balances[msg.sender][ticker] >= amount,\n            \"insufficnient balance\"\n        );\n\n        balances[msg.sender][ticker] = balances[msg.sender][ticker].sub(amount); //effect\n        IERC20(tokenMapping[ticker].tokenAddress).transfer(msg.sender, amount); //interact\n        //we're interacting with the real token contract, transfer token fron that token contract\n        //to the msg.sender who is the right owner\n        //we are the DEX!!!\n    }\n}\n",
  "sourcePath": "/Users/yanjun/Desktop/Solidity201/DEX/contracts/wallet.sol",
  "compiler": {
    "name": "solc",
    "version": "0.8.0+commit.c7dfd78e.Emscripten.clang"
  },
  "schemaVersion": "3.4.1",
  "updatedAt": "2021-05-24T10:12:18.936Z",
  "devdoc": {
    "kind": "dev",
    "methods": {
      "owner()": {
        "details": "Returns the address of the current owner."
      },
      "renounceOwnership()": {
        "details": "Leaves the contract without owner. It will not be possible to call `onlyOwner` functions anymore. Can only be called by the current owner. NOTE: Renouncing ownership will leave the contract without an owner, thereby removing any functionality that is only available to the owner."
      },
      "transferOwnership(address)": {
        "details": "Transfers ownership of the contract to a new account (`newOwner`). Can only be called by the current owner."
      }
    },
    "version": 1
  },
  "userdoc": {
    "kind": "user",
    "methods": {},
    "version": 1
  }
}