{
  "contractName": "Wallet",
  "abi": [
    {
      "anonymous": false,
      "inputs": [
        {
          "indexed": true,
          "internalType": "address",
          "name": "previousOwner",
          "type": "address"
        },
        {
          "indexed": true,
          "internalType": "address",
          "name": "newOwner",
          "type": "address"
        }
      ],
      "name": "OwnershipTransferred",
      "type": "event"
    },
    {
      "inputs": [],
      "name": "owner",
      "outputs": [
        {
          "internalType": "address",
          "name": "",
          "type": "address"
        }
      ],
      "stateMutability": "view",
      "type": "function",
      "constant": true
    },
    {
      "inputs": [],
      "name": "renounceOwnership",
      "outputs": [],
      "stateMutability": "nonpayable",
      "type": "function"
    },
    {
      "inputs": [
        {
          "internalType": "uint256",
          "name": "",
          "type": "uint256"
        }
      ],
      "name": "tokenList",
      "outputs": [
        {
          "internalType": "bytes32",
          "name": "",
          "type": "bytes32"
        }
      ],
      "stateMutability": "view",
      "type": "function",
      "constant": true
    },
    {
      "inputs": [
        {
          "internalType": "bytes32",
          "name": "",
          "type": "bytes32"
        }
      ],
      "name": "tokenMapping",
      "outputs": [
        {
          "internalType": "bytes32",
          "name": "ticker",
          "type": "bytes32"
        },
        {
          "internalType": "address",
          "name": "tokenAddress",
          "type": "address"
        }
      ],
      "stateMutability": "view",
      "type": "function",
      "constant": true
    },
    {
      "inputs": [
        {
          "internalType": "address",
          "name": "newOwner",
          "type": "address"
        }
      ],
      "name": "transferOwnership",
      "outputs": [],
      "stateMutability": "nonpayable",
      "type": "function"
    },
    {
      "inputs": [
        {
          "internalType": "bytes32",
          "name": "ticker",
          "type": "bytes32"
        },
        {
          "internalType": "address",
          "name": "tokenAddress",
          "type": "address"
        }
      ],
      "name": "addToken",
      "outputs": [],
      "stateMutability": "nonpayable",
      "type": "function"
    },
    {
      "inputs": [
        {
          "internalType": "bytes32",
          "name": "ticker",
          "type": "bytes32"
        },
        {
          "internalType": "uint256",
          "name": "amount",
          "type": "uint256"
        }
      ],
      "name": "deposit",
      "outputs": [],
      "stateMutability": "nonpayable",
      "type": "function"
    },
    {
      "inputs": [
        {
          "internalType": "bytes32",
          "name": "ticker",
          "type": "bytes32"
        },
        {
          "internalType": "uint256",
          "name": "amount",
          "type": "uint256"
        }
      ],
      "name": "withdraw",
      "outputs": [],
      "stateMutability": "nonpayable",
      "type": "function"
    }
  ],
  "bytecode": "0x608060405234801561001057600080fd5b5060006100216100c460201b60201c565b9050806000806101000a81548173ffffffffffffffffffffffffffffffffffffffff021916908373ffffffffffffffffffffffffffffffffffffffff1602179055508073ffffffffffffffffffffffffffffffffffffffff16600073ffffffffffffffffffffffffffffffffffffffff167f8be0079c531659141344cd1fd0a4f28419497f9722a3daafe3b4186f6b6457e060405160405180910390a3506100cc565b600033905090565b611030806100db6000396000f3fe608060405234801561001057600080fd5b50600436106100885760003560e01c80638da5cb5b1161005b5780638da5cb5b146101005780639776aacf1461011e5780639ead72221461013a578063f2fde38b1461016a57610088565b8063040cf0201461008d5780631de26e16146100a9578063667cb4ba146100c5578063715018a6146100f6575b600080fd5b6100a760048036038101906100a29190610beb565b610186565b005b6100c360048036038101906100be9190610beb565b61040a565b005b6100df60048036038101906100da9190610b86565b6105fd565b6040516100ed929190610df9565b60405180910390f35b6100fe610641565b005b61010861077b565b6040516101159190610d63565b60405180910390f35b61013860048036038101906101339190610baf565b6107a4565b005b610154600480360381019061014f9190610c27565b6108df565b6040516101619190610dde565b60405180910390f35b610184600480360381019061017f9190610b34565b610903565b005b81600073ffffffffffffffffffffffffffffffffffffffff166001600083815260200190815260200160002060010160009054906101000a900473ffffffffffffffffffffffffffffffffffffffff1673ffffffffffffffffffffffffffffffffffffffff1614156101f757600080fd5b81600360003373ffffffffffffffffffffffffffffffffffffffff1673ffffffffffffffffffffffffffffffffffffffff168152602001908152602001600020600085815260200190815260200160002054101561028a576040517f08c379a000000000000000000000000000000000000000000000000000000000815260040161028190610e42565b60405180910390fd5b6102ed82600360003373ffffffffffffffffffffffffffffffffffffffff1673ffffffffffffffffffffffffffffffffffffffff168152602001908152602001600020600086815260200190815260200160002054610aac90919063ffffffff16565b600360003373ffffffffffffffffffffffffffffffffffffffff1673ffffffffffffffffffffffffffffffffffffffff1681526020019081526020016000206000858152602001908152602001600020819055506001600084815260200190815260200160002060010160009054906101000a900473ffffffffffffffffffffffffffffffffffffffff1673ffffffffffffffffffffffffffffffffffffffff1663a9059cbb33846040518363ffffffff1660e01b81526004016103b2929190610db5565b602060405180830381600087803b1580156103cc57600080fd5b505af11580156103e0573d6000803e3d6000fd5b505050506040513d601f19601f820116820180604052508101906104049190610b5d565b50505050565b81600073ffffffffffffffffffffffffffffffffffffffff166001600083815260200190815260200160002060010160009054906101000a900473ffffffffffffffffffffffffffffffffffffffff1673ffffffffffffffffffffffffffffffffffffffff16141561047b57600080fd5b6001600084815260200190815260200160002060010160009054906101000a900473ffffffffffffffffffffffffffffffffffffffff1673ffffffffffffffffffffffffffffffffffffffff166323b872dd3330856040518463ffffffff1660e01b81526004016104ee93929190610d7e565b602060405180830381600087803b15801561050857600080fd5b505af115801561051c573d6000803e3d6000fd5b505050506040513d601f19601f820116820180604052508101906105409190610b5d565b506105a482600360003373ffffffffffffffffffffffffffffffffffffffff1673ffffffffffffffffffffffffffffffffffffffff168152602001908152602001600020600086815260200190815260200160002054610ac290919063ffffffff16565b600360003373ffffffffffffffffffffffffffffffffffffffff1673ffffffffffffffffffffffffffffffffffffffff168152602001908152602001600020600085815260200190815260200160002081905550505050565b60016020528060005260406000206000915090508060000154908060010160009054906101000a900473ffffffffffffffffffffffffffffffffffffffff16905082565b610649610ad8565b73ffffffffffffffffffffffffffffffffffffffff1661066761077b565b73ffffffffffffffffffffffffffffffffffffffff16146106bd576040517f08c379a00000000000000000000000000000000000000000000000000000000081526004016106b490610e62565b60405180910390fd5b600073ffffffffffffffffffffffffffffffffffffffff1660008054906101000a900473ffffffffffffffffffffffffffffffffffffffff1673ffffffffffffffffffffffffffffffffffffffff167f8be0079c531659141344cd1fd0a4f28419497f9722a3daafe3b4186f6b6457e060405160405180910390a360008060006101000a81548173ffffffffffffffffffffffffffffffffffffffff021916908373ffffffffffffffffffffffffffffffffffffffff160217905550565b60008060009054906101000a900473ffffffffffffffffffffffffffffffffffffffff16905090565b6107ac610ad8565b73ffffffffffffffffffffffffffffffffffffffff166107ca61077b565b73ffffffffffffffffffffffffffffffffffffffff1614610820576040517f08c379a000000000000000000000000000000000000000000000000000000000815260040161081790610e62565b60405180910390fd5b60405180604001604052808381526020018273ffffffffffffffffffffffffffffffffffffffff16815250600160008481526020019081526020016000206000820151816000015560208201518160010160006101000a81548173ffffffffffffffffffffffffffffffffffffffff021916908373ffffffffffffffffffffffffffffffffffffffff16021790555090505060028290806001815401808255809150506001900390600052602060002001600090919091909150555050565b600281815481106108ef57600080fd5b906000526020600020016000915090505481565b61090b610ad8565b73ffffffffffffffffffffffffffffffffffffffff1661092961077b565b73ffffffffffffffffffffffffffffffffffffffff161461097f576040517f08c379a000000000000000000000000000000000000000000000000000000000815260040161097690610e62565b60405180910390fd5b600073ffffffffffffffffffffffffffffffffffffffff168173ffffffffffffffffffffffffffffffffffffffff1614156109ef576040517f08c379a00000000000000000000000000000000000000000000000000000000081526004016109e690610e22565b60405180910390fd5b8073ffffffffffffffffffffffffffffffffffffffff1660008054906101000a900473ffffffffffffffffffffffffffffffffffffffff1673ffffffffffffffffffffffffffffffffffffffff167f8be0079c531659141344cd1fd0a4f28419497f9722a3daafe3b4186f6b6457e060405160405180910390a3806000806101000a81548173ffffffffffffffffffffffffffffffffffffffff021916908373ffffffffffffffffffffffffffffffffffffffff16021790555050565b60008183610aba9190610ee9565b905092915050565b60008183610ad09190610e93565b905092915050565b600033905090565b600081359050610aef81610f9e565b92915050565b600081519050610b0481610fb5565b92915050565b600081359050610b1981610fcc565b92915050565b600081359050610b2e81610fe3565b92915050565b600060208284031215610b4657600080fd5b6000610b5484828501610ae0565b91505092915050565b600060208284031215610b6f57600080fd5b6000610b7d84828501610af5565b91505092915050565b600060208284031215610b9857600080fd5b6000610ba684828501610b0a565b91505092915050565b60008060408385031215610bc257600080fd5b6000610bd085828601610b0a565b9250506020610be185828601610ae0565b9150509250929050565b60008060408385031215610bfe57600080fd5b6000610c0c85828601610b0a565b9250506020610c1d85828601610b1f565b9150509250929050565b600060208284031215610c3957600080fd5b6000610c4784828501610b1f565b91505092915050565b610c5981610f1d565b82525050565b610c6881610f3b565b82525050565b6000610c7b602683610e82565b91507f4f776e61626c653a206e6577206f776e657220697320746865207a65726f206160008301527f64647265737300000000000000000000000000000000000000000000000000006020830152604082019050919050565b6000610ce1601583610e82565b91507f696e7375666669636e69656e742062616c616e636500000000000000000000006000830152602082019050919050565b6000610d21602083610e82565b91507f4f776e61626c653a2063616c6c6572206973206e6f7420746865206f776e65726000830152602082019050919050565b610d5d81610f65565b82525050565b6000602082019050610d786000830184610c50565b92915050565b6000606082019050610d936000830186610c50565b610da06020830185610c50565b610dad6040830184610d54565b949350505050565b6000604082019050610dca6000830185610c50565b610dd76020830184610d54565b9392505050565b6000602082019050610df36000830184610c5f565b92915050565b6000604082019050610e0e6000830185610c5f565b610e1b6020830184610c50565b9392505050565b60006020820190508181036000830152610e3b81610c6e565b9050919050565b60006020820190508181036000830152610e5b81610cd4565b9050919050565b60006020820190508181036000830152610e7b81610d14565b9050919050565b600082825260208201905092915050565b6000610e9e82610f65565b9150610ea983610f65565b9250827fffffffffffffffffffffffffffffffffffffffffffffffffffffffffffffffff03821115610ede57610edd610f6f565b5b828201905092915050565b6000610ef482610f65565b9150610eff83610f65565b925082821015610f1257610f11610f6f565b5b828203905092915050565b6000610f2882610f45565b9050919050565b60008115159050919050565b6000819050919050565b600073ffffffffffffffffffffffffffffffffffffffff82169050919050565b6000819050919050565b7f4e487b7100000000000000000000000000000000000000000000000000000000600052601160045260246000fd5b610fa781610f1d565b8114610fb257600080fd5b50565b610fbe81610f2f565b8114610fc957600080fd5b50565b610fd581610f3b565b8114610fe057600080fd5b50565b610fec81610f65565b8114610ff757600080fd5b5056fea26469706673582212200b7e053d8eca9491bdcb410f35fbb483beef57ea045cb590d829d66aedbf9ba864736f6c63430008000033",
  "immutableReferences": {},
  "source": "pragma solidity 0.8.0;\n\nimport \"../node_modules/@openzeppelin/contracts/token/ERC20/IERC20.sol\";\nimport \"../node_modules/@openzeppelin/contracts/utils/math/SafeMath.sol\";\nimport \"../node_modules/@openzeppelin/contracts/access/Ownable.sol\";\n\ncontract Wallet is Ownable {\n    using SafeMath for uint256;\n\n    struct Token {\n        bytes32 ticker;\n        address tokenAddress; //call token contracts in order to make transfer calls\n    }\n    mapping(bytes32 => Token) public tokenMapping; //in order to quickily search and update\n    bytes32[] public tokenList; // in order to iterate\n\n    mapping(address => mapping(bytes32 => uint256)) balances; // address=> tokenSymbol=> balances\n\n    modifier isTokenExists(bytes32 ticker) {\n        require(tokenMapping[ticker].tokenAddress != address(0));\n        _;\n    }\n\n    function addToken(bytes32 ticker, address tokenAddress) external onlyOwner {\n        tokenMapping[ticker] = Token(ticker, tokenAddress);\n        tokenList.push(ticker);\n    }\n\n    function deposit(bytes32 ticker, uint256 amount)\n        external\n        isTokenExists(ticker)\n    {\n        IERC20(tokenMapping[ticker].tokenAddress).transferFrom(\n            msg.sender,\n            address(this),\n            amount\n        );\n        balances[msg.sender][ticker] = balances[msg.sender][ticker].add(amount);\n    }\n\n    function withdraw(bytes32 ticker, uint256 amount)\n        external\n        isTokenExists(ticker)\n    {\n        // from this contract to msg.sender\n        // we just held the tokens for owners in this DEX\n\n        // this function is interacting with actual token contract. in order to\n        // trasfer tokens between the user's ownership and our contract's ownership\n        // we need to interact with ERC token contract\n        // to interact with another contract -- we need interface and address\n        // --> what the contract looks like and where the contract is\n        require( //check\n            balances[msg.sender][ticker] >= amount,\n            \"insufficnient balance\"\n        );\n\n        balances[msg.sender][ticker] = balances[msg.sender][ticker].sub(amount); //effect\n        IERC20(tokenMapping[ticker].tokenAddress).transfer(msg.sender, amount); //interact\n        //we're interacting with the real token contract, transfer token fron that token contract\n        //to the msg.sender who is the right owner\n        //we are the DEX!!!\n    }\n}\n",
  "sourcePath": "/Users/yanjun/Desktop/Solidity201/DEX/contracts/wallet.sol",
  "compiler": {
    "name": "solc",
    "version": "0.8.0+commit.c7dfd78e.Emscripten.clang"
  },
  "schemaVersion": "3.4.1",
  "updatedAt": "2021-05-23T07:17:08.853Z",
  "networkType": "ethereum",
  "devdoc": {
    "kind": "dev",
    "methods": {
      "owner()": {
        "details": "Returns the address of the current owner."
      },
      "renounceOwnership()": {
        "details": "Leaves the contract without owner. It will not be possible to call `onlyOwner` functions anymore. Can only be called by the current owner. NOTE: Renouncing ownership will leave the contract without an owner, thereby removing any functionality that is only available to the owner."
      },
      "transferOwnership(address)": {
        "details": "Transfers ownership of the contract to a new account (`newOwner`). Can only be called by the current owner."
      }
    },
    "version": 1
  },
  "userdoc": {
    "kind": "user",
    "methods": {},
    "version": 1
  }
}